:0420000004EF10F0E9
:0C200800086A076A066A000186EF3FF0D4
:107E7800800E9B6E700ED36E100ED26E900EB56E85
:107E8800D2BE1200FDD7000E016E0AD0F00E00D04F
:107E9800E82EFDD7012A1A0E016402D0000E120046
:107EA80082AEF4D70150120047EC3FF0086E160E70
:107EB80008640AD01A0E086007D0A5EC3FF0066ED9
:107EC800CEEC3FF0076E1200000E066E000E076E35
:107ED8001200000E896E000E0F015B6F2F0E926E5E
:107EE800000E8A6E000E0F015C6F000E936EF19EFD
:107EF800000E8B6E000E0F015D6FB00E946E810E3A
:107F0800D56E12003CEC3FF06DEC3FF0000E816E38
:107F180082BEFED758EC3FF0050E0718D8B406C04D
:107F280081FF020E056E190E046E820EE82EFED732
:107F3800042EFCD7052EFAD784B6E8D70EEF00F04A
:107F4800E5D7000E036E080E026E0250D8B420D09A
:107F580082BEFED747EC3FF0086E030E08640AD0D5
:107F6800090E086007D00204D8B410D0D8900330A6
:107F7800036E0CD0090E086407D00F0E086004D0F9
:107F880003508009036EEFD7000E12000206DDD7FA
:107F980003501200000E036E030E026E0250D8B496
:107FA8001DD082BEFED747EC3FF0086E030E086472
:107FB80004D0090E086001D009D0090E08640AD05F
:107FC8000F0E086007D003508009036ED890033065
:107FD800036E02D0000E12000206E0D7D8900330DC
:107FE800036ED8900330036ED8900330036ED89098
:087FF8000330036E0350120078
:020000040020DA
:08000000FFFFFFFFFFFFFFFF00
:020000040030CA
:0E00000021081F3EFF5181FF0FC00FE00F408F
:00000001FF
