:0A16080000008B31072B8F31FD2FFE
:101E4C00FC3021009900903027009B0021001A1BC8
:101E5C0008002C2F57302100950022008C01230004
:101E6C008C010F3021008C0022008D0123008D018C
:101E7C00F03021008D0022008E0123008E010730EE
:101E8C0021008E000800F100710803195C2F22005C
:101E9C008E153030890B502F22008E113030890B6B
:101EAC00552F0130F1027108031D4D2F0A30F0003F
:101EBC005830890B5F2FF00B5F2F00320800F500B4
:101ECC0060308F3149278F310830F3007308F600EA
:101EDC0076080319822F751C752F3030762F183029
:101EEC008F3149278F317536F3007308F5000130B7
:101EFC00F6027608031D712F0330F3007308F70008
:101F0C00770803199A2F721C8D2F30308E2F1830B2
:101F1C008F3149278F317236F3007308F20001308C
:101F2C00F7027708031D892F0230F4001930F300F3
:101F3C008230890B9F2FF30B9F2FF40B9F2F0800E0
:101F4C008F3126278F318F3130278F3120008D1E16
:101F5C000D1BB62F0530F8007808F2000630F42F70
:101F6C000D1E8D1BBF2F0530F8007808F2000930CC
:101F7C00F42F0D1E0D1BC82F0530F8007808F20049
:101F8C000A30F42F8D1E8D1BD12F0530F8007808E8
:101F9C00F2000530F42F8D1E0D1EDA2F0530F800DF
:101FAC007808F2000430F42F0D1E8D1EE32F05303F
:101FBC00F8007808F2000830F42F8D1F0D1FEC2F5D
:101FCC000530F8007808F2000130F42F0D1F8D1F3A
:101FDC00F72F0530F8007808F20002308F316527B2
:101FEC008F3120008C19AC2F80311C28AC2F200095
:041FFC008F31A62F4C
:020000040001F9
:04000E0084CFCFDFED
:00000001FF
